:020000040001F9
:10C00000D0CB00207DC5010085C5010087C501009A
:10C0100089C501008BC501008DC50100000000002D
:10C020000000000000000000000000008FC50100BB
:10C0300091C501000000000093C5010095C50100F5
:10C0400097C5010097C5010099E4010097C501005B
:10C0500097C5010097C50100F9D20100B9D70100C9
:10C0600097C50100A5E20100BDE2010097C50100EE
:10C0700097C5010097C5010097C5010097C501004C
:10C0800005E60100A9D5010097C5010097C501008B
:10C09000D9D9010097C50100E1D9010097C5010078
:10C0A00097C5010097C5010097C5010097C501001C
:10C0B00097C5010097C501000000000000000000C6
:10C0C00097C5010097C5010097C5010097C50100FC
:10C0D00097C5010097C5010097C501000000000049
:10C0E0000000000000000000000000000000000050
:10C0F0000000000000000000000000000000000040
:10C10000000000000000000000000000000000002F
:10C11000000000000000000000000000000000001F
:10C40000DFF80CD000F020FB00480047F5350200B3
:10C41000D0CB0020401E00BF00BF00BF00BF00BF48
:10C4200000BF00BF00BF00BF00BF00BF00BF00BF14
:10C4300000BF00BF00BF00BF00BF00BF00BF00BF04
:10C4400000BF00BF00BF00BF00BF00BF00BF00BFF4
:10C4500000BF00BF00BF00BF00BF00BF00BF00BFE4
:10C4600000BF00BF00BF00BF00BF00BF00BF00BFD4
:10C4700000BF00BF00BF00BF00BF00BF00BF00BFC4
:10C4800000BF00BF00BFC5D170470000401E00BF05
:10C4900000BF00BF00BF00BF00BF00BF00BF00BFA4
:10C4A00000BF00BF00BF00BF00BF00BF00BF00BF94
:10C4B00000BF00BF00BF00BF00BF00BF00BF00BF84
:10C4C00000BF00BF00BF00BF00BF00BF00BF00BF74
:10C4D00000BF00BF00BF00BF00BF00BF00BF00BF64
:10C4E00000BF00BF00BF00BF00BF00BF00BF00BF54
:10C4F00000BF00BF00BF00BF00BF00BF00BFC5D16D
:10C5000070470000401E00BF00BF00BF00BF00BF5B
:10C5100000BF00BF00BF00BF00BF00BF00BF00BF23
:10C5200000BF00BF00BF00BF00BF00BF00BF00BF13
:10C5300000BF00BF00BF00BF00BF00BF00BF00BF03
:10C5400000BF00BF00BF00BF00BF00BF00BF00BFF3
:10C5500000BF00BF00BF00BF00BF00BF00BF00BFE3
:10C5600000BF00BF00BF00BF00BF00BF00BF00BFD3
:10C5700000BF00BF00BFC5D170470000064880471C
:10C5800006480047FEE7FEE7FEE7FEE7FEE7FEE7B8
:10C59000FEE7FEE7FEE7FEE76DE0010001C40100F3
:10C5A00010B5431A934209D28318881803E010F893
:10C5B000011D03F8011D521EF9D210BD40EA01030E
:10C5C0009B0703D009E008C9121F08C0042AFAD249
:10C5D00003E011F8013B00F8013B521EF9D210BDF7
:10C5E000D2B201E000F8012B491EFBD270470022B5
:10C5F000F6E710B513460A4604461946FFF7F0FF62
:10C60000204610BD30B505462A460B4612F8010BF0
:10C6100013F8014B08B1A042F8D01CB1002802D099
:10C620006D1CF1E7284630BD421C10F8011B0029A3
:10C63000FBD1801A70472DE9FE4F81EA030404F014
:10C64000004421F0004100944FF0000B23F0004320
:10C6500050EA01045ED052EA03045BD0C3F30A54EB
:10C66000C1F30A552C44A4F2F3340194A0FB025404
:10C67000C1F3130141F48011C3F3130343F4801396
:10C6800001FB024400FB034E840A970A44EA8154EA
:10C6900047EA8357A4FB076802958D0A05FB0785C7
:10C6A0004FEA932C04FB0C542705029D4FEA0658D1
:10C6B00047EA1637B5EB08056EEB070C870E920EAE
:10C6C00047EA811742EA8312A7FB0201B6EB0B018E
:10C6D00064EB00042B0D43EA0C335E1844EB1C5052
:10C6E000DA465146E7FB0201C5F313044FEA0B3368
:10C6F00043EA14534FEA0432019C43EA0603A4F1CF
:10C700000C040294009CCDE900B400F04FF903B092
:10C71000BDE8F08F00200146F9E72DE9F04D81EAF0
:10C72000030404F0004B21F0004514464FF0000ACA
:10C7300023F0004150EA050220D054EA01021DD046
:10C74000C5F30A570246C5F31303C1F31300C1F33F
:10C750000A5640F4801543F48013A7EB0608101B1B
:10C76000D64608F2FD3873EB050002D308F1010844
:10C7700001E092185B41B8F1000F03DA0020014696
:10C78000BDE8F08D00204FF48011064684460EE08F
:10C79000171B73EB050705D3121B63EB0503064359
:10C7A0004CEA010C49084FEA300092185B4150EA0C
:10C7B0000107EDD152EA030012D082EA040083EAB5
:10C7C0000501084305D0101BAB4106D2012200230E
:10C7D00006E000224FF0004302E06FF00102531028
:10C7E0001AEB06004CEB085110EB0A0041EB0B0171
:10C7F000BDE8F04D00F0CBB80EB5C10F80EAE07097
:10C800000844CA07002140F233438DE80E000A466F
:10C810000B4600F0CBF803B000BD0EB540F233413B
:10C8200002910021CDE900110A460B4600F0BEF846
:10C8300003B000BD00F0004230F000400AD0C10D4E
:10C8400001F56071C0F3160042EA0151C2084007C9
:10C8500011437047002001467047000030B5041EA8
:10C8600071F1000404DB4FF00044404264EB01012D
:10C87000141E73F1000405DB1C464FF000435242C6
:10C8800063EB04038B4208BF824230BD30B5041E07
:10C8900071F1000404DB4FF00044404264EB0101FD
:10C8A000141E73F1000405DB1C464FF00043524296
:10C8B00063EB0403994208BF904230BD01F000438E
:10C8C00030B421F0004150EA010206D00A0DA2F571
:10C8D0006072C1F31301002A02DC30BC00207047F3
:10C8E000440F44EAC104C100E01830BC00EBC25060
:10C8F00000F016B830B50B46014600202022012476
:10C9000009E021FA02F59D4205D303FA02F5491B1D
:10C9100004FA02F52844151EA2F10102F1DC30BD33
:10C920000029A8BF7047401C490008BF20F0010043
:10C93000704710B4B0FA80FC00FA0CF050EA010421
:10C9400004BF10BC704749B1CCF1200421FA04F4B3
:10C9500011FA0CF118BF012121430843A3EB0C018C
:10C96000CB1D4FEA00614FEA102042BF002010BCEF
:10C97000704700EBC35010440029A4BF10BC70479F
:10C98000401C490008BF20F0010010BC704710B5E2
:10C99000141E73F1000408DA401C41F100019218E2
:10C9A0005B411A4301D120F0010010BD2DE9F04D8B
:10C9B00092469B4611B1B1FA81F202E0B0FA80F2E0
:10C9C0002032904600F052F804460F4640EA0A0032
:10C9D00041EA0B0153465A46084313D0114653EA25
:10C9E000010019D0C8F14002504600F04EF805464B
:10C9F0000E4650465946424600F038F8084305D0E6
:10CA0000012004E020463946BDE8F08D00200543B2
:10CA100046EAE0762C4337430A986305E40AA0EB24
:10CA200008000022FD0A44EA47540A3002D50020DB
:10CA30000146E9E7010510196941DDE908450019DA
:10CA40006941BDE8F04DA2E7064C074D06E0E068FD
:10CA500040F0010394E8070098471034AC42F6D345
:10CA6000FFF7D2FC7464020094640200202A04DB05
:10CA7000203A00FA02F1002070479140C2F12003F1
:10CA800020FA03F3194390407047202A04DB203A30
:10CA900021FA02F00021704721FA02F3D040C2F1DE
:10CAA0002002914008431946704770B58C1810F861
:10CAB000015B15F0070301D110F8013B2A1106D1E3
:10CAC00010F8012B03E010F8016B01F8016B5B1EFD
:10CAD000F9D12B0705D40023521E0DD401F8013BD8
:10CAE000FAE710F8013BCB1A921C03E013F8015B44
:10CAF00001F8015B521EF9D5A142D8D3002070BDC8
:10CB000070B58AB0484A0021484807F0B3F9044696
:10CB100000BF264626B100BF304604F04BFA00BFE6
:10CB200000BF4FF44871414B1A68D2F81035D8B2A3
:10CB300000BF02460B0123FA02F500BF00BF01202F
:10CB400002232A4601460090384807F071F9374819
:10CB500007F05CF9364803C8CDE9080108A90120AF
:10CB600006F0E4FF044600BF264626B100BF30466B
:10CB700004F020FA00BF00BF2D49083103C9CDE9F8
:10CB8000060106A9022006F0D1FF044600BF264692
:10CB900026B100BF304604F00DFA00BF00BF2449A3
:10CBA000103103C9CDE9040104A9032006F0BEFF3A
:10CBB000044600BF264626B100BF304604F0FAF90D
:10CBC00000BF00BF1A49183103C9CDE9020102A90B
:10CBD000002006F0ABFF044600BF264626B100BF8A
:10CBE000304604F0E7F900BF00BF1249002006F00C
:10CBF000F5FF044600BF264626B100BF304604F0CC
:10CC0000D9F900BF00BF04210B4806F049FF0446D4
:10CC100000BF264626B100BF304604F0CBF900BF66
:10CC200000BF0AB070BD000075E401005C63020043
:10CC3000646302009D4F02008220002010B50C208A
:10CC400007F073FC0D2007F070FC0C2007F09CFC33
:10CC50000D2007F099FC10BD30B589B000240020EC
:10CC600007900890142102A8FFF7C1FC0025114885
:10CC7000B0F9020001900F48B0F90400009001984B
:10CC8000B0F5805F02D94FF4805001900098B0F564
:10CC9000805F02D94FF4805000906A4601A906488F
:10CCA00001F0CCFC05480088401C0449088009B00C
:10CCB00030BD0000822000205030002022210020C2
:10CCC0009FED020A024880ED000A70479A99993E4A
:10CCD000802200202DE9F04105460C460026002761
:10CCE00074DFE1B2284604F019F9032004F05EFE77
:10CCF000BDE8F08110B505F07DF907F0E1FF05F022
:10CD00009FFF08F065FA04F0DBF805F057FC0320FC
:10CD100004F04CFE0446002001490870E0B210BD4A
:10CD2000F020002010B52DED068B9FED580AB0EED7
:10CD3000408A57480078142863DB00205449087063
:10CD40005449098840F6B83211FB02F0FFF754FD50
:10CD50009FED510B53EC102BFFF7DFFCFFF7AEFDFF
:10CD600008EE100AB5EEC08AF1EE10FA03D29FED7C
:10CD7000470AB0EE408A4A480078401C484908708B
:10CD8000484991ED000ABDEEC00A10EE101ABDEE42
:10CD9000C80A10EE102A501A002801DB014600E0F4
:10CDA0004142B1F5967F0ADD3E4880ED008A0020C1
:10CDB0003B4908703C490860BDEC068B10BD394802
:10CDC00080ED008A3848BCEEC80A016810EE100AEF
:10CDD00008443549086032480078192854DB084671
:10CDE00000681921B0FBF1F02F490860084600687F
:10CDF000B0F5707F06D300202949087001202B4927
:10CE0000087041E02848006840F28E3188420BD318
:10CE100025480068B0F5707F06D2002020490870D0
:10CE20000220224908702FE01F48006840F2663156
:10CE300088420CD31C48006840F28E31884206D2EA
:10CE40000020174908700320184908701CE0164894
:10CE50000068B0F54D7F0CD31348006840F266318E
:10CE6000884206D200200E49087004200F4908703D
:10CE70000AE00D480068B0F54D7F05D20020084952
:10CE8000087005200949087000BF95E70000000000
:10CE90000521002082200020000000000000B0409A
:10CEA00025210020702400202C2100201B2100209F
:10CEB00070B53648364C00250078012802D1354837
:10CEC000007808B1257070BDB0EEC00A334E32490B
:10CED000B06F01EB800282ED000A401CB06763284E
:10CEE00000DDB567DFED2E0AB0EE601ADFED2D1A1A
:10CEF000B0EE612A00202C4A01EB800393ED000A7A
:10CF0000B4EEC10AF1EE10FA01DDB0EE401A02EB08
:10CF1000800393ED000AB4EEE00AF1EE10FA01DDB1
:10CF2000F0EE400AB4EEE00AF1EE10FA01DDF0EEA8
:10CF3000400AB4EEE10AF1EE10FA01D2F0EE401A26
:10CF4000401C6428D8DB31EE420A184810EE101A53
:10CF5000814215DA0121B17130EEE10A10EE102A9A
:10CF600082420FDDF171F26F41F29410824200DDD6
:10CF7000F067F06F401CF067FA2805DD217070BD86
:10CF8000257070BD257070BD257070BDCE2200204B
:10CF900098220020CC220020D0A70020CC23002003
:10CFA0000000000000404E4560A9002000004843FA
:10CFB00070B52DED028B82B000200190009000260C
:10CFC0009FED370AB0EE408A9FED350AF0EE408AB9
:10CFD000002434480488FFF773FE002520E001AAEE
:10CFE0006946314800F020FB06461EB902B0BDEC90
:10CFF000028B70BD9DED000AB8EE400AB0EE408A8B
:10D000009DED010AB8EE400AF0EE408AB0EE680AE3
:10D0100004F01CFAB0EE480A04F06AFA681C85B203
:10D02000A542DCDB1F480088001B1E4908801F4802
:10D0300000781F4908701F4800781F4908701F4872
:10D040000068A0B100201E4908701E4800781B49E6
:10D050000968884203D0194800781A4908701748AF
:10D060000068401E184951F8200018490860184807
:10D070000068002811DD0020164908701448006877
:10D08000142802DD0020124908600C480068401E88
:10D09000114951F820001149086000BFA6E70000BF
:10D0A000000000002221002050300020CC2200206F
:10D0B000F2200020CE220020022100209C2200200D
:10D0C000FD2000204E210020A4590020F420002043
:10D0D000A0220020FC200020645D0020F820002019
:10D0E00010B52DED068B9FED5C0AB0EE408A5B48D3
:10D0F000007814287EDB5A49C98840F6B83211FB03
:10D1000002F0FFF779FB9FED570B53EC102BFFF765
:10D1100004FBFFF7D3FB08EE100A9FED540AB4EEB0
:10D12000C08AF1EE10FA03DD9FED500AB0EE408A9E
:10D130004F480078401C4E4908700020474908704D
:10D140004C4991ED030ABDEEC00A10EE101ABDEE77
:10D15000C80A10EE102A501A002801DB014600E030
:10D160004142B1F57A7F0CDD424880ED038A002010
:10D170003F4908704049087040490860BDEC068B83
:10D1800010BD3C4880ED038A3C48BCEEC80A0168EB
:10D1900010EE100A0844394908609FED390AB4EED0
:10D1A000C08AF1EE10FA04DD33480078401C3249A1
:10D1B00008702F48007819284BDB30480068192187
:10D1C000B0FBF1F02D49086008460068B0F57A7FA1
:10D1D00018D32C480078012814D001202A4908705F
:10D1E00003202A4908800120294908700420294980
:10D1F000087000E02DE028480078032802D127A01D
:10D2000003F018FC1C48007803281BDA1B48006850
:10D21000B0F5167F16D22348007898B100201A493D
:10D22000087001201A49087004201A4908701A4829
:10D230000078032802D11CA003F0FCFB00211C484D
:10D2400000F0AAFA00200C490870094908700B493F
:10D25000086000BF92E700000000000004210020E9
:10D2600082200020000000000000B04000401C456B
:10D2700024210020702400200321002028210020E8
:10D2800000004844CE220020CD22002000210020B2
:10D290000621002007210020C9200020D3D0C8CBC0
:10D2A0000D0A000002210020CEDEC8CB0D0A0000CE
:10D2B0005030002010B50024C82200210448FFF798
:10D2C0006FF90020034908800349087010BD000071
:10D2D000AC270020C6200020C520002000200549E2
:10D2E000086001208107086000BF0248006800282C
:10D2F000FBD07047000100402DE9F04F87B00027B8
:10D30000BA464FF4807006900125002412E006987A
:10D3100007F06EF940B100BF60480068284018B1BE
:10D32000069807F057F92F436D000698001D80B24C
:10D330000690641C082CEAD34FF4BE7007F058F92D
:10D3400048B14FF4BE7007F045F947F0004700BF01
:10D35000534800688246F8B2F8B1012500241AE06B
:10D3600005EA0700A8B100BF4E4850F82400C0F3FA
:10D370000420064600BF4B4850F82400C0F301408B
:10D380008046204604F0C0FE814641463046C847EC
:10D3900000BF6D00641C082CE2D307F00040002899
:10D3A00079D04FF0000B00200590401E049000BF84
:10D3B0004FF0000B002457E03B48005D03900398BA
:10D3C00020F0C00638480057401C00284BD00120F0
:10D3D000B04004990840002845D003984FEA9019BE
:10D3E000304604F099FE804604F08EFE02900298CA
:10D3F00010B9B9F1030F35D1012000FA06F5B9F1E2
:10D40000030F02D105982843059000BF274850F824
:10D410002600C0F3014800BF05EA0A0010B1B8F1C8
:10D42000020F05D005EA0A00D8B9B8F1030F18D1E8
:10D43000B9F1030F0FD1B8F1020F01D1032000E0C1
:10D44000022001903046019907F07CF80BF10100B1
:10D4500000F0FF0B00BF029818B149463046029A0F
:10D46000904700BF00BF641C002CA5D0BBF1000F8B
:10D470000DD000BF0A4909680846504503D14FF056
:10D48000000B03E007E082460599049100BFBBF161
:10D49000000F8DD100BF07B0BDE8F08F04630040DE
:10D4A0001005005010650040FC4F002000070050A0
:10D4B00070B503F067F82D4C6269092A55DD2C49D7
:10D4C00001F28C4002F014FA05462A460A21284847
:10D4D00005F003FF2A460A21264805F020FF60696F
:10D4E000401B60612249E269403101F2744002F060
:10D4F000BFFA05461E482A460A21403005F0EDFED7
:10D500001C482A460A21283005F009FFE069401B23
:10D51000E0611949E26B01F53A7002F027F805461F
:10D520002A460A21144805F0D8FE12482A460A2144
:10D53000503005F0F4FEE06B401BE0630E49628959
:10D540005031A1F1280002F0D7FE05460A482A46CC
:10D550000A21503005F0C1FE07482A460A2128302A
:10D5600005F0DDFE6089401B608170BDCC2300208A
:10D57000B4A2002040A70020A8A4002070B5002479
:10D580000025FFF7ABFE00200649086003F098FD78
:10D5900000F0A1F9FFF7B4FAFFF750FB012000F00B
:10D5A00087FF70BD0C12001010B5002009490860FB
:10D5B00000210948C0F84411C0F84811C0F84C11C6
:10D5C00000200549C1F8000102493C39086008F013
:10D5D00095FA10BD40110140001001400EB5022225
:10D5E0000021684600F054F99DF8000055280FD13D
:10D5F0009DF801000A49087014210A48FEF7F7FF58
:10D60000074802780221074800F042F901200EBDC8
:10D610009DF80000552801D00020F8E700BFF6E78C
:10D62000CA200020742800202DE9F04104460E464F
:10D6300017460025A846A08810B90020BDE8F08153
:10D6400041F64670005D20B1012804D0022806D1C1
:10D6500003E0042505E0042503E0012501E004259D
:10D6600000BF00BF2288A01D11182A463046FEF7D1
:10D6700097FF228804F6A67011182A463846FEF74E
:10D680008FFF208828444FF47A6190FBF1F201FB70
:10D6900012002080A088401BA0800120CEE700005F
:10D6A00030B50024002000210023384A5279521C52
:10D6B000364D6A712A4652793C2A66DB00226A712D
:10D6C0002A461279521C2A712A4612793C2A0EDB0C
:10D6D00000222A712A46D278521CEA702C4A12780B
:10D6E0002AB900222B4D2A700122294D2A70274A7F
:10D6F000D278182A06DB0022244DEA702A46927856
:10D70000521CAA70214A10785178C51700EB957504
:10D71000AD10A0EB85051DB9022901D11D2317E02D
:10D720000D2912D2DFE801F011070F081109110AC3
:10D730000B110C110D0000BF00BF00BF00BF00BFE8
:10D7400000BF1F2303E01C2301E01E2300BF00BF16
:10D750000E4A92789A4206DD01220C4DAA702A46A2
:10D760005278521C6A70094A52780C2A06DD01224E
:10D77000064D6A702A461278521C2A70034A1278A3
:10D78000632A02DB0022014D2A7030BDD620002022
:10D79000E2200020E320002070B504460D46002062
:10D7A00020806080A08041F646700555811FA01D35
:10D7B000FEF71DFF002070BDFEB54FF4827006F02D
:10D7C0006BFF38B34FF4827006F070FF00208DF8C5
:10D7D00000002D484068019000BF2C48006880B2CE
:10D7E000ADF808002848C06820B90020264981F813
:10D7F00027000AE02448C068234948600846808A18
:10D8000008810020C86006F06DFF1F480168684667
:10D81000884700BF4FF48A7006F03EFF40B14FF4D6
:10D820008A7006F043FF0020174981F827002AE09C
:10D830001548056924E0B5FA85F64FF00040F04040
:10D840008543B00000F58C74204606F025FFB8B182
:10D85000204606F02BFF01208DF80000A4F58C7007
:10D86000C0F3C7008DF80400A4F58C70012121EAF3
:10D8700090018DF80510044801686846884700BF8C
:10D88000002DD8D100BFFEBD3850002034760040B6
:10D8900070B505460C461646192006F06DFE0320AD
:10D8A00000F053F8C4F3074000F04FF8C4F307202A
:10D8B00000F04BF8E0B200F048F803E000F04CF85C
:10D8C00028706D1C301EA6F101018EB2F6D1192010
:10D8D00006F062FE70BD7CB5192006F00EFE1C201D
:10D8E00006F00BFE1B2006F008FE1A25002400207F
:10D8F00000902346024601460190284606F0CCFDE2
:10D9000000BF192006F048FE7CBD2DE9F04100243F
:10D91000002500260027192006F02EFE9F2000F08B
:10D920003DF800F019F8054600F016F8064600F03C
:10D9300013F80746192006F02FFE280440EA0620B7
:10D9400040EA07042046BDE8F08110B504462046B1
:10D9500000F024F8FF2010BD70B5FF24002500BFA3
:10D9600015E01C2006F018FE6006040E1C2006F0D0
:10D9700003FE0120FEF74EFD1A2007490968C14049
:10D9800001F0010109B144F00104681CC5B2082D81
:10D99000E7DB204670BD00001005005070B505465D
:10D9A000002416E005FA04F000F0800018B11B20F6
:10D9B00006F0F2FD02E01B2006F0DEFD1C2006F062
:10D9C000DBFD0120FEF726FD1C2006F0E5FD601CB6
:10D9D000C4B2082CE6DB70BD10B507F0A7FF10BD80
:10D9E00070B50A48006868B1084800688047044676
:10D9F00000BF254625B100BF284603F0DBFA00BF73
:10DA000000BF01E005F02CFB70BD0000B821002034
:10DA100038B504460020009010208DF800000B4817
:10DA200000788DF801008DF8024008480078401C0D
:10DA30000649087008460078FF2801DD00200870BC
:10DA400003216846FFF746F938BD00001E2100207B
:10DA500010B52DED028B00249FED430AF0EE408AB5
:10DA6000002008EE100A4148007801280DD14048F6
:10DA7000006850B93F4800780F2806DA3C48006833
:10DA80003D49086001203D49086038480078012878
:10DA900025D137480068002821DD39480078022860
:10DAA0001AD1002408E0344951F8240005F09EF909
:10DAB00008EE100A601CC4B2304800688442F2D3F9
:10DAC000B8EE480A05F0FAF82E49087000202B49F4
:10DAD0000860BDEC028B10BD00F028F92DE0234852
:10DAE000007801280ED12248006858B924480078EF
:10DAF000022803D1002023490870EAE7012000F042
:10DB000049F81AE01948007802280BD11C4800781F
:10DB1000022803D100201B490870DAE7052000F035
:10DB200039F80AE016480078022803D10020154988
:10DB30000870CEE7002000F02DF8002405E0124820
:10DB4000005D12490855601CC4B2062CF7DB104872
:10DB50000078401C0E49087008460078FF2801DD57
:10DB60000020087000BFB4E7000000000221002080
:10DB7000F4200020FD200020A45900209C22002039
:10DB8000C420002095200020D62000200B2100205A
:10DB90001D210020F0B58DB0044600250026002789
:10DBA00001208DF80000184800788DF8010024B994
:10DBB00000208DF802008DF80300012C15D11348C8
:10DBC0000078012803D107208DF802000AE00F48F1
:10DBD0000078022803D109208DF8020002E0052018
:10DBE0008DF8020000208DF80300052C05D10520DA
:10DBF0008DF8020000208DF8030004216846FFF72D
:10DC000069F80DB0F0BD00001D210020F0220020B9
:10DC1000F0B58DB0044600250026002702208DF8BF
:10DC20000000294800788DF801005CB900208DF8CB
:10DC300002008DF8030025480078032802D124A0B3
:10DC400002F0F8FE022C0CD108208DF80200002012
:10DC50008DF803001D480078032802D11FA002F0B0
:10DC6000E9FE032C0CD107208DF8020000208DF86E
:10DC7000030016480078032802D11DA002F0DAFE46
:10DC8000042C0CD108208DF8020000208DF8030030
:10DC90000E480078032802D119A002F0CBFE062C12
:10DCA0000CD109208DF8020000208DF803000748F0
:10DCB0000078032802D117A002F0BCFE04216846B8
:10DCC000FFF708F80DB0F0BD1C210020C92000208E
:10DCD000BAF4CEFC3ACEDEC8CB0D0A00BAF4CEFCC4
:10DCE0003AD3D0D0C4C2CACEDEBAF4CEFC0D0A00FC
:10DCF000BAF4CEFC3ABAF4CEFCD4DDCDA30D0A00C2
:10DD0000BAF4CEFC3ABAF4CEFCCEDEB7A8BCC6CB91
:10DD1000E30D0A00BAF4CEFC3AD7E8C8FBD0D4BA77
:10DD2000F4CEFCD4DDCDA30D0A000000F0B52DED3E
:10DD3000028BADF2044D00240025002008EE100AED
:10DD40002A48008886B2002701208DF80400284860
:10DD500000788DF8050027480078012801D18DF85A
:10DD6000060025480078002802DD02208DF8060014
:10DD700022480078012802D107208DF806001F48AC
:10DD80000078022802D109208DF806001948007891
:10DD9000012802D000208DF806000327002408E0A7
:10DDA000174951F8240005F021F808EE100A601C0C
:10DDB00084B2B442F4DBB8EE480A04F07FFFC5B287
:10DDC0003846791C8FB201A90D540020074908601C
:10DDD000324629460BA002F02DFE394601A8FEF777
:10DDE00079FF0DF2044DBDEC028BF0BD9C220020AA
:10DDF0001D21002002210020CC220020F022002042
:10DE0000A459002020D0C4C2CAD6B53A2025642027
:10DE10002020206865617274735F6C656E3A2025FE
:10DE2000640D0A002DE9F043C1B0002400271E480C
:10DE3000008886B20025A046A14602208DF8040085
:10DE40001A4800788DF8050019480078012801D19A
:10DE50008DF8060017480078002802DD02208DF8B2
:10DE6000060013480078012802D000208DF8060033
:10DE7000032500240CE0104951F8240005F03CF87B
:10DE8000C2B22846691C8DB201A90A54601C84B232
:10DE9000B442F0DB002004490860294601A8FEF7DF
:10DEA00019FF41B0BDE8F083A02200201C21002012
:10DEB00002210020CC220020645D002010B52DED51
:10DEC000028B00249FED580AB0EE408A5748007834
:10DED00001280DD15648006850B9564800780628E8
:10DEE00006DA554800685549086001205049086025
:10DEF0004E480078012810D15148007801280CD1F3
:10DF000050480078022805D100204F494870BDECE8
:10DF1000028B10BD0320FFF77BFE444800780128E8
:10DF20000ED14748007802280AD1464800780228D6
:10DF300003D1002044494870E9E70620FFF768FE56
:10DF40003A480078012820D13948006800281CDDB3
:10DF50003B480078C8B93B480078022812D1002419
:10DF600008E0364951F8240004F0C6FF36494870ED
:10DF7000601CC4B22E4800688442F2DB00202C49A9
:10DF80000860C4E7FFF74EFF37E028480078012813
:10DF900015D12E480068002811DD2548006870B9A9
:10DFA0002748007858B927480078022803D1002074
:10DFB00025494870ABE70220FFF72AFE1DE01B4809
:10DFC000007858B91F480078022803D100201E4964
:10DFD00048709CE70020FFF71BFE0EE01348007816
:10DFE00002280AD117480078022803D100201649D8
:10DFF00048708CE70420FFF70BFE002405E014486E
:10E00000005D14490855601CC4B2062CF7DB1248A9
:10E010000078401C1049087008460078FF2801DD90
:10E020000020087000BF72E70000000002210020FD
:10E03000A0220020FC200020F8200020645D0020A9
:10E04000F0220020C420002095200020F420002091
:10E05000D6200020112100201C2100200148024967
:10E06000086070470090D0035022002010B504F0E3
:10E070000BFC10B17D487E49486704F01DFC28B1B7
:10E080007C480068C0F342307B49086004F03EFCE5
:10E0900028B17A48006820F080707849086004F060
:10E0A0004DFC48B10020764908604FF08041C1F82E
:10E0B00010017149091F086004F06AFC18B10320BF
:10E0C0006D496431086004F07BFC68B105206D493E
:10E0D000086001206B4978310860002069490831E7
:10E0E00008603F20091F086004F082FC002855D01A
:10E0F00065480068654908606348001D0068091D9F
:10E100000860614808300068091D08605E480C30EE
:10E110000068091D08605C4810300068091D08602F
:10E12000594814300068091D0860574818300068C5
:10E1300056492031086054481C300068091D0860A9
:10E14000514820300068091D08604F48243000689D
:10E15000091D08604C4828300068091D08604A48BD
:10E160002C300068091D0860474830300068474976
:10E1700040310860444834300068091D0860424856
:10E1800038300068091D08603F483C300068091DB0
:10E1900008603D4840300068091D086004F04AFBF3
:10E1A00030B134481430006800F04F00384908603E
:10E1B00032487438006840F470003049743908609F
:10E1C00000BF00BF00BFBFF34F8F00BF00BF00BF45
:10E1D00000BF00BF00BFBFF36F8F00BF00BF00BF15
:10E1E0002C48006800F00100E0B301202A490860D3
:10E1F00000BF2A4800680028FBD02648006820F0AD
:10E2000001004FF01021C1F80C0200BF2348006844
:10E210000028FBD000202049086000BF1F4800688C
:10E220000028FBD000BF00BF00BF00BF00BFBFF38E
:10E230004F8F00BF00BF00BF1048F038006800F4E7
:10E24000E06017490843001D0C49F039086000BF21
:10E2500000BF00BFBFF34F8F00BF00BF00BF00BFB4
:10E2600000BFFDE7FFE7FFF7F9FE10BD0DF0ADBA07
:10E2700000C00740440200103C050040FCED00E0F7
:10E280000C010040105600400404001020C500405E
:10E29000E40E00400C12001004E5014000E40140CF
:10E2A0000000FA0510B504220249034804F02AFFD1
:10E2B00010BD0000005000200090004010B5042266
:10E2C0000249034804F01EFF10BD00000C5000205E
:10E2D00000A0004070B504460D46B4F5A07F2BD1D8
:10E2E00052480088401C5149088051480078401C21
:10E2F0004F4908704F480088401C4E4908804E48DE
:10E300000088401C4C4908804C480088401C4B4900
:10E3100008804B480088401C4949088049480078DB
:10E3200020B949480078401C4749087047480078A0
:10E33000401C4649087000E000BF00BF3C48007820
:10E34000022804DB00203A490870FEF785FC3748B4
:10E350000088B0F57A7F68DB0020344908800846E1
:10E360008078401C88703A480078401C3849087012
:10E3700038480078401C3749087037480078401CFE
:10E3800035490870294880783C2806D10020274963
:10E3900088700846C078401CC8702448C0783C2863
:10E3A00006D100202149C87008460079401C087138
:10E3B0001E480079182806D100201C49087108461B
:10E3C000C088401CC8802548007848B92448007897
:10E3D000012805D123480078401C2249087002E03A
:10E3E000002020490870FFF75BF91F48007805F00E
:10E3F000FDFF1E480078C0B11D480078401C1C4934
:10E400000870084600783C280FD100200870174893
:10E410000078022802D101201449087013480078BE
:10E42000032802D100201149087070BDCE200020C1
:10E43000DE200020DC200020E4200020E620002058
:10E44000E8200020F02000200421002005210020E9
:10E45000FC200020FD200020DF200020CE22002014
:10E46000C420002020210020CD200020E220002018
:10E47000E320002070B504460D46B4F5A27F06D116
:10E480000421044805F00CFB05F040FC00E000BF4F
:10E4900000BF70BD8220002010B50448007F10B17D
:10E4A00007F0D0FD01E007F01DFD10BD984F0020E2
:10E4B00070B588B00546012D1ED1104A07CA05ABBC
:10E4C00007C300BF0E480190012002900D48039041
:10E4D0006802049003230C4A01A905A802F082FEF9
:10E4E000044600BF00BF264626B100BF304602F0FA
:10E4F00061FD00BF00BF00BF08B070BD84630200B3
:10E500008C200020802400204D52020070B5002491
:10E51000002517A11848FEF775F8044617A11648FC
:10E52000FEF770F8054684B1FEF7C4FE1548007882
:10E53000022803D114A002F07DFA70BD0220114917
:10E54000087016A002F076FAF7E77DB1FEF7B2FE8A
:10E550000C480078012803D115A002F06BFAECE713
:10E5600001200849087017A002F064FA00BFE4E730
:10E570006955544D4F444500AC2700206942544D25
:10E580004F444500C4200020B5B1C7B0D2D1CAC79E
:10E59000B4AEBFDAC4A3CABD0D0A0000C7D0BBBB6E
:10E5A000B5BDB4AEBFDAC4A3CABD0D0A00000000F9
:10E5B000B5B1C7B0D2D1CAC7C0B6D1C0C4A3CABD55
:10E5C0000D0A0000C7D0BBBBB5BDC0B6D1C0C4A347
:10E5D000CABD0D0A000000000EB5074A07CA8DE843
:10E5E00007000649684605F019FF054805F0D4FE06
:10E5F00005F002FF0EBD00009863020047630200B1
:10E60000CD20002010B5012009490968014009B159
:10E61000012100E00021012908D100BF00200902EA
:10E62000044A885000BF04480068804710BD0000BD
:10E630000403014000000140502100202DE9F04179
:10E6400004460F4616460025A088B0F57A6F02DB17
:10E650000020BDE8F08141F64670005D20B1012840
:10E6600004D0022806D103E0042505E0042503E0D8
:10E67000012501E0042500BF00BF6288A11D5018DC
:10E680002A463946FDF78CFF628804F6A6715018B9
:10E690002A463146FDF784FF608828444FF47A61AA
:10E6A000B0FBF1F201FB12006080A0882844A0803A
:10E6B0000120CEE7194A1A4B1046D2ED060A4078DF
:10E6C000401CC1B2B4EEE00A0020F1EE10FA0CDDFD
:10E6D000D0819089401C80B29081012800D1517076
:10E6E0005178491E43F821000BE09081D089401CED
:10E6F00080B2D081012800D151705178491E43F871
:10E700002100074950782839401E01EB800080ED38
:10E71000000A82ED060A01F04DBD000054220020DF
:10E72000685900202DE9F0472DED028B00250026C9
:10E730000024DFF8FC80DFF8FC903F4F71E06D1C97
:10E740003E49601C31F8101031448EB208EB840150
:10E7500008EB800091ED001A90ED000AB4EEC01AAB
:10E76000F1EE10FA4BD2A01C08EB8000D0ED000AAD
:10E77000B4EEE00AF1EE10FA41DD30EE411A11EE8E
:10E78000100A484505DC70EE600A10EE900A484514
:10E7900035DD601C08EB8000D0ED000A08EB84003A
:10E7A000A41C90ED001A08EB840070EEC10A90EDF5
:10E7B000001A30EE411A70EE810A30EE808A01F0C4
:10E7C00043FC1E49B878643101EB800181ED008A79
:10E7D0001B4921F81060401CB8702A4632211448A9
:10E7E00004F07BFD2A463221144804F0BAFD786A11
:10E7F000401B78620120BDEC028BBDE8F08740F63B
:10E80000C41086420CD92A463221094804F065FD1D
:10E810002A463221094804F0A4FD786A401B786238
:10E82000641C786AC01E844289DB0020E3E7000094
:10E83000B888002000002041F4220020D089002068
:10E84000FC8A002070B50C46002C19D004F02EFA7A
:10E850000546204604F022FB601B00EE900AF8EE0D
:10E86000E00AB0EEE01A00EE904AF8EEE00A20EE80
:10E87000800AB4EEC01AF1EE10FA03D2012070BD86
:10E88000012070BD002070BD2DE9F05F2DED0C8BD7
:10E890000024DFF8F4B30BF1280A9FEDFCBB9FEDD9
:10E8A000FDCBFE4FA146DFF8F8834AE00BEB840076
:10E8B000D0ED000A601C0BEB800191ED000AF4EE34
:10E8C000C00AF1EE10FA3AD298F80010F1B398EDC0
:10E8D0000D1AB4EEC10AF1EE10FA01DD88ED0D0A51
:10E8E000F04AD8F83810914201D1C8ED0E0A5AF812
:10E8F0002010A01C5AF820201144D8F83C208D1874
:10E90000C8F83C5030EE60DA0BEB8006D6ED000A1A
:10E9100030EE609A98ED040A30EE0D0A88ED040A94
:10E9200098ED050A30EE090A88ED050A00F022FB91
:10E9300088ED0C0ADC48007830B3C8F83C90641CC1
:10E94000641C98F80100401F844200E017E0ADDB32
:10E95000002C10DD621E0A21CB4804F0BEFCCA4820
:10E96000621E0A21283004F0DAFC98F80100001B2E
:10E97000401C88F80100BDEC0C8BBDE8F09F012025
:10E9800088F80000641CDBE7E01C0BEB8001D6ED8F
:10E99000000A91ED000A30EE608A221D0BEB820125
:10E9A000D1ED000A70EE608A397831B1D8F81C00D8
:10E9B00001F0AAFF01F010FCC1E7D8F81C106B1A97
:10E9C00000EE103AB8EEC00AF0EEC09A5AF82000F5
:10E9D0005AF8222010444619701A00EE100AB8EEB8
:10E9E000C00AF0EEC0DAD8F81000FDF723FF9FED63
:10E9F000AF1B53EC112BFDF71EFE41EC1A0BD8F8A0
:10EA00001400FDF717FF53EC1A2BFDF73FFF30D230
:10EA100018EE900AFDF70EFF53EC1C2BFDF70BFED2
:10EA200041EC190B18EE100AFDF704FF53EC192BFB
:10EA3000FDF714FF0DD298ED040A30EE080A88EDB8
:10EA4000040A98ED050A30EE280A88ED050A3546D5
:10EA5000A41C3978284601F057FF2846D8ED0E0A45
:10EA600098ED0D0A00F05AFA01F0B6FBC8F82490B0
:10EA700065E7D8F81000FDF7DDFE9FED8E1B53EC27
:10EA8000112BFDF7D8FD41EC1A0BD8F81400FDF757
:10EA9000D1FE53EC1A2BFDF7F9FE51D2B4EEE88A01
:10EAA000F1EE10FA12D2D8F81400FDF7C3FE53ECC1
:10EAB0001B2BFDF7C0FD41EC1A0B18EE100AFDF7F9
:10EAC000B9FE53EC1A2BFDF7C9FE1BD3D8F81C0076
:10EAD000002825DDF4EEED9AF1EE10FA20DD18EEB7
:10EAE000100AFDF7A7FE53EC1B2BFDF7A4FD41EC2C
:10EAF000190B18EE900AFDF79DFE53EC192BFDF74C
:10EB0000C5FE0DD298ED040A30EE080A88ED040A1D
:10EB100098ED050A30EE280A88ED050A3546A41C52
:10EB20003978284601F0F0FE2846D8ED0E0A98ED17
:10EB30000D0A00F0F3F901F04FFBC8F82490FEE64F
:10EB4000D8F81000FDF776FE9FED5C1B53EC112BFF
:10EB5000FDF771FD41EC1A0BD8F81400FDF76AFEC1
:10EB600053EC1A2BFDF792FE3ED2D8F81C00002879
:10EB70003ADDF4EEED9AF1EE10FA35D2B4EEE88A11
:10EB8000F1EE10FA20D2D8F81400FDF753FE53EC42
:10EB90001B2BFDF750FD41EC190B18EE100AFDF789
:10EBA00049FE53EC192BFDF759FE0DD298ED040ADE
:10EBB00030EE080A88ED040A98ED050A30EE280ABE
:10EBC00088ED050A3546A41C3978284601F09CFEDC
:10EBD0002846D8ED0E0A98ED0D0A00F09FF901F0D5
:10EBE000FBFAC8F82490AAE6D8F81C0000286FDDCC
:10EBF000F4EEED9AF1EE10FA6AD2D8F82400042867
:10EC000066DAD8F83000FDF715FE53EC1C2BFDF743
:10EC100012FD41EC1A0B19EE100AFDF70BFE53EC36
:10EC20001A2BFDF733FE53D21DEE100AFDF702FE3C
:10EC3000B0EE4C1AF0EE6C1A53EC112BFDF7FBFC06
:10EC400041EC1A0B19EE100AFDF7F4FD53EC1A2BE8
:10EC5000FDF71CFE3CD218EE900AFDF7EBFD9FED90
:10EC6000191B53EC112BFDF7E6FC41EC190B18EEC8
:10EC7000100AFDF7DFFD53EC192BFDF707FE27D235
:10EC800098F80200012822E040590020000000000E
:10EC90000000E03F9A9999999999B93FF022002094
:10ECA0005422002000409C45CC2200201F85EB51BF
:10ECB000B81EED3FB81E85EB51B8E63F85EB51B865
:10ECC0001E85E33F9A9999999999C93F00E007D029
:10ECD0003978D8F81C0001F017FE01F07DFA2EE615
:10ECE000D8F82400401CC8F824003978284601F0E0
:10ECF0000BFE2846D8ED0E0A98ED0D0A00F00EF92D
:10ED000001F06AFA1BE600002DE9F04104460D46C9
:10ED1000404E707809280ED901230A2202213E486C
:10ED200004F026FB3C4801220A21283804F0D5FAD9
:10ED30007078401E707005EB84000023D0ED000A4F
:10ED4000A01C05EB8000E11C90ED000A601C324A1B
:10ED5000F4EEC00AA2F12807F1EE10FA05EB8000EC
:10ED600005EB81012CD2D0ED000AF4EEC00AF1EEE1
:10ED700010FA25D2D1ED000AF4EEC00AF1EE10FA35
:10ED80001ED2241D05EB8404D4ED000AF4EEC00A63
:10ED9000F1EE10FA14D27178481C07EB8101C0B271
:10EDA00081ED000A318922F8101002EB40027189CE
:10EDB0009182401C7070F18073810520BDE8F08164
:10EDC000D0ED000AF4EEC00AF1EE10FA1AD2D1ED3D
:10EDD000000AF4EEC00AF1EE10FA13D27178481C62
:10EDE00007EB8101C0B281ED000A318922F81010D1
:10EDF00002EB400271899182401C7070F180738136
:10EE00000320DBE7B6F90A00052801DA401C70810F
:10EE10000020D3E76024002090AB002070B50546A9
:10EE2000094CA0780A2807D301220A21074804F0D8
:10EE3000BAFAA178491EA1700448A17820F81150AF
:10EE4000491CA17070BD00004C24002018AB0020AC
:10EE500070B50546094CA168092907D901220A2184
:10EE6000074804F0A0FAA168491EA1600448A168FF
:10EE700020F81150491CA16070BD000054240020EE
:10EE800054AB002070B50546094CE1680A2907D348
:10EE900001220A21074804F086FAE168491EE16070
:10EEA0000448E16820F81150491CE16070BD000081
:10EEB00060240020B8AB0020F0B5144E3568002D5A
:10EEC00022DD0020124C1BE0124B134A616853F8FC
:10EED000207042F8217003EB800302EB8102D3F82B
:10EEE000F070C2F8F070D3F8E071C2F8E071D3F8B6
:10EEF000D032C2F8D0323B2901D2491C6160401C9B
:10EF0000A842E1DB00203060F0BD0000202300209B
:10EF100098220020608B0020A459002070B505467F
:10EF20002DED028BB0EE408AF0EE608A0F4CA16AA4
:10EF3000132908DD0123142203210D4804F0D4F91C
:10EF4000A16A491EA16201EE105A0948A16AB8EEF1
:10EF5000C11A00EB810080ED001A80ED148AC0ED2B
:10EF6000288A491CA162BDEC028B70BD542200208E
:10EF7000005300209FED0C0AF0EE400A0021002013
:10EF80000A4A02EB800393ED001A71EE200A491C35
:10EF9000401C0528F5DB042905DD00EE101AB8EE4B
:10EFA000C01A80EE810A70470000000090590020CE
:10EFB00010B504462DED028BA0B0B0EE408A7C2146
:10EFC00001A8FDF714FB7C22214601A8FDF7E8FA11
:10EFD000002101AB0A4608460EE003EB8004D4EDA5
:10EFE000000A03EB820494ED001AF4EEC10AF1EE7C
:10EFF00010FA00D20246401C1F28EEDB03EB820011
:10F00000D0ED000A03EB810292ED001A80ED001AA8
:10F01000C2ED000A491C1F29DCDBB3EE0F0A28EE03
:10F02000000ABDEEC00A10EE100A03EB800090ED5E
:10F03000000A20B0BDEC028B10BD10B504462DEDCA
:10F04000028B8CB0B0EE408A30216846FDF7CFFAD3
:10F05000302221466846FDF7A3FA00216B460A4696
:10F0600008460EE003EB8004D4ED000A03EB8204B3
:10F0700094ED001AF4EEC10AF1EE10FA00D2024645
:10F08000401C0C28EEDB03EB8200D0ED000A03EB02
:10F09000810292ED001A80ED001AC2ED000A491CAF
:10F0A0000C29DCDBB2EE080A28EE000ABDEEC00A2D
:10F0B00010EE100A03EB800090ED000A0CB0BDECDE
:10F0C000028B10BD2DE9F04F2DED028B87B000258E
:10F0D000A946DFF874A39AF80200401FC6B20027C1
:10F0E000059706970397049701970297DFF85CB39B
:10F0F000CDF800B033460BF1C8029AF8001003A80F
:10F1000000F0E0FF0446CDF800B033460BF1C80232
:10F110009AF8001001A801F00FF88046CDF800B071
:10F1200033460BF1C8029AF8001005A800F0A4FFBE
:10F130008346C748007848B901AA03A905A801F089
:10F1400083F801AA03A905A801F0BCF8BAF81600D3
:10F1500018B9BAF81000AAF81600BAF8180040B1A9
:10F16000CAF82800BAF81000AAF81600AAF8187011
:10F1700009E0B648C830B61C30F91610DAF8280095
:10F180000844CAF828009AF8000008B9CAF828709C
:10F190000020BAF81A1005290ED1BAF90C20022A5B
:10F1A00002DA521CAAF80C20BAF80C20022A03D169
:10F1B000AAF80870AAF80A70032902D0232910D0EF
:10F1C0001EE0BAF90810052902DA491CAAF808104D
:10F1D000BAF80810052913D1AAF80C70AAF80A7019
:10F1E0000EE0BAF90A10052902DA491CAAF80A1039
:10F1F000BAF80A10052903D1AAF80C70AAF8087009
:10F20000BAF80C10022908D0BAF80810052906D05F
:10F21000BAF80A10052904D004E0204602E0584656
:10F2200000E040460026012810D1BAF91610DAF89D
:10F230002800FFF707FB012802D09AF8000028B940
:10F24000DAF8285001208AF800000126DAF8284070
:10F25000002C0FD0BAF9160000280BDD012E07D0C4
:10F260009AF80610DFF8E4B11329ABF1B40B02D918
:10F270008AF806708AE034D2FDF7BEFA9FED751B5E
:10F2800053EC112BFDF7D7F941EC180B204603F096
:10F290000DFDFDF7C2FA53EC182BFDF7DFFA20D273
:10F2A000BAF91600FDF7A8FA9FED6C1B53EC112B71
:10F2B000FDF7C1F941EC180BDAF8280003F0F6FC71
:10F2C000FDF7ABFA53EC182BFDF7E0FA09D29AF8E8
:10F2D0000600DAF82820411C8AF806104BF8202096
:10F2E00054E04FF49678002427E05BF8240003F004
:10F2F000DDFC00EE100AB8EE400A03F0DFFC064623
:10F30000BAF9160000EE100AB8EEC00A03F0D6FCF7
:10F31000301A00EE100AB8EEC00AB0EEC00ABDEE18
:10F32000C00A10EE100A404506DA282E04DD804699
:10F330005BF824504FF00109641C9AF806008442DF
:10F34000D3DBB5B9DAF8280003F0B0FC00EE100A00
:10F35000BAF91600F8EE400A00EE100AB8EEC00A3C
:10F360009FED401A20EE010AF4EEC00AF1EE10FA09
:10F3700007DC002D0ADDBAF916102846FFF762FAFD
:10F3800020B98AF806700025CAF82870DAF8280033
:10F3900070B103F08BFC00EE100AB8EE400A03F0E7
:10F3A0008DFC0A2804D2CAF8287000258AF8067055
:10F3B000002D44DD8AF80670DAF82800401BCAF8F0
:10F3C0002800284603F072FC04B2BAF91000AAF82B
:10F3D000160020B9204603F069FCAAF8100000EEE0
:10F3E000104AB8EEC00A03F069FCB0F5967F07D268
:10F3F000BAF81A304A46BAF91210204601F030F92C
:10F400001348007850EA090006D19AF8050003284D
:10F4100002D2401C8AF80500B9F1010F01D18AF827
:10F42000057000EE104AB8EEC00A00F0EFFE9AF840
:10F430000500032803D101F03DFAAAF8100007B037
:10F44000BDEC028BBDE8F08FF4220020348A00204E
:10F45000CC220020333333333333F33F9A999999D5
:10F460009999E93F9A99993F70B501EB8002D2EDE5
:10F47000000A821C01EB820494ED000AF4EEC00A3B
:10F48000F1EE10FA35D2421C01EB8202D2ED000AF5
:10F49000F4EEC00AF1EE10FA2BD2C21C01EB82028C
:10F4A000D2ED000AF4EEC00AF1EE10FA21D2001DEE
:10F4B00001EB8000D0ED000AF4EEC00AF1EE10FA84
:10F4C00017D20D4D6878092807D901220A210B4867
:10F4D00003F003FF6878401E6870687894ED000AB6
:10F4E000411C6970054901EB800080ED000A012094
:10F4F00070BD002070BD0000542400202CAB002003
:10F5000070B500210022174CA069401CA0610025A5
:10F51000F92800D9A561B0EEC00A134BA06903EB2E
:10F52000800080ED000A002094ED050A03EB8006C0
:10F53000D6ED000AF4EEC00AF1EE10FA01DD491C26
:10F5400001E000D2521C401CFA28EFD3607918B1B8
:10F55000AF2A05D9657103E0AF2901D90120607197
:10F56000607970BDCC2200207C7700202DE9F04727
:10F5700081462DED028B0E460024A046314D571ECC
:10F5800059E059F82400A96D0844A86541F2941186
:10F59000884201DDC5F84C80601C06EB800090EDD0
:10F5A000000A06EB8400D0ED000A30EE608A26499E
:10F5B00018EE100A88423DDDD5ED170A234988EE82
:10F5C000200A10EE100A884232DD688909280DD918
:10F5D00001220A211E4803F080FE1D4801220A2153
:10F5E000283803F09CFE6889401E688195ED180A52
:10F5F000B5EEC00AF1EE10FA01D185ED188A95ED4D
:10F60000180AF6EE000A30EE080A20EE200A104A28
:10F610006889283AA96D42F820100D4901EB800154
:10F6200081ED000A401C688185ED188AC5F8588074
:10F6300085ED178A641CBC42A3DBBDEC028B20461F
:10F64000BDE8F087CC230020000096436666263F85
:10F65000F8A4002010B5134C206CB0F5967F17DA93
:10F66000D4ED0B0AF5EEC00AF1EE10FA03D1F7EE75
:10F67000000AC4ED0B0A94ED0B1ADFED0B0A411CD6
:10F68000216440EE010A094901EB8000C0ED000A47
:10F69000FFF710F86078052803D9BDE81040FFF7A0
:10F6A000F3B810BD542200200080BB4490540020C9
:10F6B00070B5421C01EB82021F4DD2ED000A821C84
:10F6C00001EB820494ED000AF4EEC00AF1EE10FAA8
:10F6D0002AD2C01C01EB8000D0ED000AF4EEC00A73
:10F6E000F1EE10FA20D22878092807D901220A2140
:10F6F000124803F0F2FD2878401E28706878002632
:10F70000012804D92E7050210C48FCF770FF0B49DA
:10F71000287894ED000A01EB800181ED000A401C7D
:10F7200028706E70012070BD6878022801D2401CDC
:10F730006870002070BD00004C240020F0AA00205A
:10F7400010B500F083FE0648406A032807DDFEF787
:10F75000E9FF012803D1BDE81040FFF7B3BC10BD9D
:10F76000F422002030B51E491C4DC86805EB80020C
:10F7700082ED000A05F1640202EB8003C3ED000A8A
:10F78000401CC860182801DD0020C8609FED150AE4
:10F79000F0EE400A0020144B1449B7EE001A55F859
:10F7A00020401C448C4201D330EE010A52F8204024
:10F7B0001C448C4201D370EE810A401C00B219280F
:10F7C000EDDB10EE100A0A49884205DB10EE900AC4
:10F7D000884201DD012030BD002030BDD8750020F9
:10F7E000CC22002000000000000060BE0100DA030F
:10F7F0000000204070B500210022174C206A401CF8
:10F8000020620025F92800D92562B0EEC00A134B0A
:10F81000206A03EB800080ED000A002094ED070AC7
:10F8200003EB8006D6ED000AF4EEC00AF1EE10FA02
:10F8300001DD491C01E000D2521C401CFA28EFD324
:10F84000A07918B1E12A05D9A57103E0C82901D929
:10F850000120A071A07970BDCC220020647B002023
:10F860002DE9F0412DED028B1F4FFC78022C34D393
:10F870000025641E2BE0F86903F03EFB00EE100A41
:10F88000B8EE408A194E56F8240003F035FB00EE1E
:10F89000100AF8EE408A601E56F8200003F02CFB98
:10F8A00000EE100AB8EE400AF869002811DD38EEC3
:10F8B000C00AB0EEC00AF0EE040A20EE200AB4EE50
:10F8C000C80AF1EE10FA04D86D1CEDB2641E002CCB
:10F8D000D1DC032D05D90120B870BDEC028BBDE849
:10F8E000F0810020B870F8E754220020EC5200208C
:10F8F0002DE9F05F82462DED048B0D460024DFF8E4
:10F900005881A146554E571E9EE0706B41F29411EE
:10F91000884201DDC6F834905AF82400716B08441F
:10F92000706305EB840090ED008A601C05EB80009D
:10F9300090ED000A70EE488AF5EEC08AF1EE10FAFA
:10F940001BDDB06A1E2808DD434801221F21F83064
:10F9500003F0C3FCB06A401EB062B06A411CB162E1
:10F960003D49F83101EB8000C0ED008A9FED3C0A73
:10F970000846FFF71DFB86ED0B0A306B01281AD1F4
:10F98000B6F908001E2808DD01231F220221324893
:10F9900003F0AAFC3089401E308196ED0D0AB6F9BD
:10F9A0000800B8EEC00A08EB800181ED000A81ED85
:10F9B0001F8A401C3081F06AFCF73CFF9FED291B39
:10F9C00053EC112BFCF737FE41EC190BB0EEE80AB3
:10F9D00010EE100AFCF72EFF53EC192BFCF756FF24
:10F9E00031D24FF0000B9FED210AB6F90820002A12
:10F9F00015DD002011E008EB8001D1ED1F0AF4EEC7
:10FA0000C00AF1EE10FA07DDB0EE600AD1ED000A8F
:10FA1000FDEEE00A10EE90BA401C9042EBDBB4EE33
:10FA2000C80AF1EE10FA03DCD6F834B0B0EE480A9A
:10FA3000584600F035FE706BA0EB0B0070630120A0
:10FA40003063A6F80890641CBC42FFF65EAFBDECC4
:10FA5000048B2046BDE8F09F1CA30020CC2300208F
:10FA6000CDCCCC3E333333333333F33F00409CC5EE
:10FA70002DE9F74F0D462DED048B0024A246DFF84B
:10FA80006C815B4EA8F13009571EA6E0F06C41F284
:10FA90009411884201DDC6F84CA00498F16C50F82E
:10FAA00024000844F06405EB840090ED000A86ED24
:10FAB000140A601C05EB8000D0ED000A30EEC08A0D
:10FAC000B5EEC08AF1EE10FA1BDD706C0B2808DD74
:10FAD000464801220C21603803F0FFFB706C401E89
:10FAE0007064706C411C71644049603901EB8000A6
:10FAF00080ED008A9FED3F0A0846FFF79EFA86EDEB
:10FB0000120A706D01281ED1B6F90C000B280DDD0C
:10FB100001220C21354803F0E0FB344801220C217E
:10FB2000303803F0FCFBB089401EB081B6F90C0000
:10FB3000F16C49F8201096ED140A08EB800181ED74
:10FB4000000A401CB0812C49B06C884214DCFCF7E0
:10FB500071FE9FED2A1B53EC112BFCF76CFD41EC61
:10FB6000190BB0EEC80A10EE100AFCF763FE53EC56
:10FB7000192BFCF78BFE2FD24FF0000B9FED210AC3
:10FB8000B6F90C10002911DD00200DE008EB800211
:10FB9000D2ED000AF4EEC00AF1EE10FA03DDB0EE89
:10FBA000600A59F820B0401C8842EFDBD6ED140AF9
:10FBB000B4EEE00AF1EE10FA03DCD6F84CB0B0EE89
:10FBC000600A584600F0F4FDF06CA0EB0B00F06406
:10FBD00001207065A6F80CA0641CBC42FFF656AF6D
:10FBE000BDEC048B2046BDE8FE8F000080A5002000
:10FBF000CC230020CDCC4C3E00002F443333333394
:10FC00003333F33F00409CC52DE9F05F8046DFF8B9
:10FC1000FCA09AF80240022C76D300250026641E30
:10FC2000DFF8EC9023E039F8140003F03FF8834646
:10FC3000601E39F8100003F039F80746584603F003
:10FC400065F9ABEB070000EE900AF8EEE00AB0EEC3
:10FC5000E01A00EE907AF8EE600A20EE800AB4EE28
:10FC6000C01AF1EE10FA04D86D1CEDB2641E002C1F
:10FC7000D9DC9AF80230581E254A264C283A13E05F
:10FC800002EB800191ED000A411E02EB8101D1EDF2
:10FC9000000A30EE600AB0EEC00A10EE101AA1425F
:10FCA00004DA761CF6B2401E0028E9DC00200021B0
:10FCB000092D1ED9052E1CD9581E9B1E39F810007F
:10FCC00039F81310F6EE000A084400EE100AB8EEF8
:10FCD000400A20EE200ABDEEC00A10EE100A02F023
:10FCE000E5FFAAF806509AF80210491E39F81110DB
:10FCF00002E00022AAF80620A8F80000BAF80600E0
:10FD0000A8F80200A8F80410BDE8F09F4C240020D9
:10FD100018AB00200000C8422DE9F05F81465C4F1F
:10FD2000BD68022D75D3002400266D1EDFF86481A6
:10FD300023E038F8150002F0B9FF8346681E38F852
:10FD4000100002F0B3FF8246584603F0DFF8ABEB39
:10FD50000A0000EE900AF8EEE00AB0EEE01A00EEBB
:10FD600090AAF8EE600A20EE800AB4EEC01AF1EE16
:10FD700010FA04D8641CE4B26D1E002DD9DCBB68F7
:10FD8000581E444A444D283A13E002EB800191ED9D
:10FD9000000A411E02EB8101D1ED000A30EE600A3B
:10FDA000B0EEC00A10EE101AA94204DA761CF6B2C0
:10FDB000401E0028E9DC0025ACB1581E9B1E38F817
:10FDC000100038F81310F6EE000A084400EE100A8E
:10FDD000B8EE400A20EE200ABDEEC00A10EE100A6E
:10FDE00002F064FF054600EE105AB8EE400A02F039
:10FDF00065FF02B200200021323A0023322A2FD8B8
:10FE0000072C07D928463C70B968491E38F81110EC
:10FE100034E03AE0022C06D928463C70B968491E05
:10FE200038F811102AE0012C02D97A68012A02D090
:10FE3000012C08D009E0B868401E38F81010284698
:10FE40003C707C601AE07A680AB13B7016E0B868D2
:10FE5000401E38F8101028463C7001227A600DE0F0
:10FE6000332A0BD3092C08D1052E06D928463C701D
:10FE7000B968491E38F8111000E03B70A9F800007D
:10FE80003878A9F80200A9F80410BDE8F09F000036
:10FE90005424002054AB0020000016432DE9F05FED
:10FEA0008046494FFC68022C7ED300250026641E44
:10FEB000DFF8189123E039F8140002F0F7FE8346CA
:10FEC000601E39F8100002F0F1FE8246584603F039
:10FED0001DF8ABEB0A0000EE900AF8EEE00AB0EE77
:10FEE000E01A00EE90AAF8EE600A20EE800AB4EE66
:10FEF000C01AF1EE10FA04D86D1CEDB2641E002C8D
:10FF0000D9DCFA68511E314B314C503B13E003EB06
:10FF1000810090ED000A481E03EB8000D0ED000A3E
:10FF200030EE600AB0EEC00A10EE100AA04204DA09
:10FF3000761CF6B2491E0029E9DC00200024F6EE0A
:10FF4000000A072D1AD9072E18D9501E921E39F80B
:10FF5000100039F81210084400EE100AB8EE400AFA
:10FF600020EE200ABDEEC00A10EE100A02F09EFE3E
:10FF70003D70F968491E39F811401CE0042D18D96C
:10FF8000042E16D9501E39F81040921E39F812006E
:10FF9000204400EE100AB8EE400A20EE200ABDEE22
:10FFA000C00A10EE100A00E00CE002F07FFE3D7087
:10FFB00001E000213970A8F800003878A8F80200A4
:10FFC000A8F80440BDE8F09F60240020B8AB0020F2
:10FFD0000000C84210B5194C206B002824D1142011
:10FFE0002063D4ED080A94ED0B0A03F025F9D4ED53
:10FFF000060A94ED0A0A05F0F5FD1148007801287B
:020000040002F8
:1000000012D194ED070AFDF753FAD4ED0B0A94EDE3
:10001000080AFCF74DFF21780A48012908D06178C9
:10002000012908D000210170206B401E206310BD03
:1000300001210170F8E702210170F5E79822002004
:10004000CE220020F022002010B5094CA0783128E3
:100050000DD901223221074803F03FF9054801225A
:100060003221C83003F07DF9A078401EA07010BD89
:10007000F4220020348A00202DE9F041074618467A
:10008000069B00260E4C00290CD0811C32F8111062
:10009000A2881144A1801946FFF70AFB0546012DED
:1000A00003D00AE0A6806670F5E7A08828B1FEF7C5
:1000B000B5FE3846FFF7A8FDA6802846BDE8F081CA
:1000C0004C2400202DE9F04107461846069B0026E7
:1000D0000E4C00290CD0811C32F81110628811449A
:1000E00061801946FFF7C0F90546012D02D009E0ED
:1000F0006680F6E7608828B1FEF7AAFE3846FFF76B
:100100000BFE66802846BDE8F081000054240020E4
:1001100010B5074CE06A3B2808DD01233C2204218E
:10012000044803F003F9E06A401EE06210BD0000DD
:10013000F4220020608B002070B506461846049B10
:1001400000251B4C00290CD0811C32F81110A2880C
:100150001144A1801946FEF7D7FDA070218919B17D
:1001600003E0A58065811BE02081C8B1A088B8B1FB
:10017000B4F90810052903D1B4F90620022A06DAD9
:10018000032903D1B4F90620012A00DA41B9FEF7A8
:1001900079FE3046FFF782FEA580A0782081E580B9
:1001A000A07810B1A570012070BD002070BD0000C6
:1001B0006024002010B5064C6078092807D9012278
:1001C0000A21044803F0ABF86078401E607010BD4F
:1001D000542200206859002009489FED080A80ED4C
:1001E0000D0A9FED080A80ED0E0A9FED070A80EDCB
:1001F000040A80ED050A0021C163704700409CC5D8
:100200005422002000409C45000000000D49B1F937
:100210001400012803DD0120C87100208882C879FC
:1002200001280CD0888A8883064AB1F9140030323C
:1002300002EB800282ED000A401C88827047022097
:100240008883F1E7F4220020F0B500230024002584
:10025000B1F800C017881A4EBCF1000F07D0F37038
:100260003371B1F90030B1F9025005240DE02FB11E
:100270003179032902D2491C317106E0018821B18C
:10028000F178032901D2491CF17017B131790329A2
:1002900005D0018871B1F178032906D00AE0B2F9DE
:1002A0000030B2F90250232404E0B0F90030B0F974
:1002B00002500324002B02DD338274837582F0BD6B
:1002C000F422002010B50B4C638B052B08D0232B98
:1002D0000BD0032B03D1418861828088208310BD1D
:1002E000488860828888208310BD5088608290880A
:1002F000208310BDF42200202DE9F04782462DED29
:10030000028B0D4600244FF00108334FDFF8CC90EC
:10031000561E59E0787908B987F8058005EB840006
:10032000D0ED000A601C05EB800191ED000AF4EEAF
:10033000C00AF1EE10FA3CD25AF82000284A01EE29
:10034000100AF8EEC11A80EE211A11EE101A91422D
:100350002FDD28282DDDA0282BDA796E0844786659
:1003600097ED1A1AB5EEC01AF1EE10FA01D1C7EDE9
:100370001A0A87ED1B0A87ED1C0AF989491CF981C5
:10038000FA2820DD10EE100AFCF754FA9FED151B39
:1003900053EC112BFCF74FF941EC180BB86EFCF73E
:1003A00049FA53EC182BFCF759FA0CD289F8008063
:1003B00009E0002078669FED0D0A87ED1A0A87EDA7
:1003C0001B0A89F80000641CB442A3DBBDEC028B5D
:1003D0002046BDE8F0870000CC23002099220020B1
:1003E000000020419A9999999999E93F00000000ED
:1003F0002DE9F041114E308800281AD00024104F0A
:10040000104DDFF8448011E055F8240002F0A0FC04
:10041000B96848F8210005EB840008EB8102006D03
:100420001065132901DA491CB960641C30888442C4
:10043000EADB00203080BDE8F08100005E22002071
:1004400098220020F0530020645D00202DE9F04147
:10045000494C4A4F6078411CC9B207EB800061707B
:1004600080ED000AE089401CE081022950D9606AD1
:1004700031280EDD0122322107F66C1002F02DFF2B
:100480000122322107F6842002F06BFF606A401ED1
:100490006062206A4FF49672904208DB374801236D
:1004A00002210C3002F020FF206A401E2062D7EDAE
:1004B000000A97ED010A0023314EF4EEC00A06F55A
:1004C0008C75F1EE10FAA5F6782123DD97ED021A6E
:1004D000B4EEC10AF1EE10FA1CD2206A01EB8002E0
:1004E00082ED000AE18902F5806200EE901AF8EED2
:1004F000600AC2ED2C0A401C2062606A06EB800292
:1005000082ED000A25F81010401C6062E3816370E0
:10051000BDE8F081F4EEC00AF1EE10FA22D2D7ED78
:10052000020AB4EEE00AF1EE10FA1BDD226A01EBDA
:10053000820080ED000AE18900F5806000EE901AEB
:10054000F8EE600AC0ED2C0A521C2262606A06EBCB
:10055000800282ED000A25F81010401C6062E381E1
:100560006370D5E701220321044802F0B6FE6078EB
:10057000401E6070CCE70000F42200204C7F002079
:10058000B888002070B5334C334D2078411CC9B277
:1005900005EB8000217080ED000AA078002835D09E
:1005A0006078401C6070022952D9606909280DDD0D
:1005B000294801220A210C3002F08FFE01220A2173
:1005C000264802F0ACFE6069401E6061D5ED000A6D
:1005D00095ED010A204B0021F4EEC00A0C33F1EE38
:1005E00010FA1E4A15DD95ED021AB4EEC10AF1EEBD
:1005F00010FA0ED2606903EB800383ED000A637882
:1006000042F82030401C6061617019E00120A07048
:10061000C9E7F4EEC00AF1EE10FA11D2D5ED020AE4
:10062000B4EEE00AF1EE10FA0ADD606903EB800334
:1006300083ED000A637842F82030401C60616170ED
:1006400001220321044802F048FE2078401E207059
:1006500070BD0000CC230020A8A2002040A70020ED
:100660002DE9F04180460D4616461F46FFF750FD26
:100670000A490948CC6A40F8248000EB8400C0F89D
:10068000F050C0F8E061C0F8D0723B2C01DA641C75
:10069000CC62BDE8F0810000608B0020F4220020D5
:1006A00070B5414C3F4DE17805EB810282ED000AC7
:1006B00000EE100AB8EEC00A82ED030A491CC8B267
:1006C000E07003286CD3606A50B995ED030AA16904
:1006D000BDEEC00A10EE100A0844A061012060625D
:1006E00095ED040AA169BDEEC00A10EE100A084497
:1006F000A061E06909280DDD2A4801220A2118308D
:1007000002F0EBFD01220A21284802F008FEE06910
:10071000401EE061D5ED000A95ED010A2149002354
:10072000F4EEC00A1831F1EE10FA204A15DD95ED0D
:10073000021AB4EEC10AF1EE10FA0ED2E06901EB32
:10074000800181ED000AA16942F82010401CE0619F
:10075000206A08442062A36119E0F4EEC00AF1EEB9
:1007600010FA14D2D5ED020AB4EEE00AF1EE10FA56
:100770000DDDE06901EB800181ED000AA16942F81D
:100780002010401CE061206A08442062A36101231C
:1007900003220221034802F0A7FDE078401EE0702A
:1007A00070BD0000DCA20020CC23002068A7002040
:1007B00070B53E4C3C4D217905EB810282ED000A7B
:1007C00000EE100AB8EEC00A82ED030A491CC8B256
:1007D0002071032866D3206C50B995ED030AA16BF4
:1007E000BDEEC00A10EE100A0844A0630120206488
:1007F00095ED040AA16BBDEEC00A10EE100A084484
:10080000A063E06B09280DDD274801220A2118307A
:1008100002F063FD01220A21254802F080FDE06B11
:10082000401EE063D5ED000A95ED010A1E4B002144
:10083000F4EEC00A1833F1EE10FA1D4A12DD95ED00
:10084000021AB4EEC10AF1EE10FA0BD2E06B03EB20
:10085000800383ED000AA36B42F82030401CE06364
:10086000A16316E0F4EEC00AF1EE10FA11D2D5ED54
:10087000020AB4EEE00AF1EE10FA0ADDE06B03EBD7
:10088000800383ED000AA36B42F82030401CE06334
:10089000A163012303220221034802F025FD2079F0
:1008A000401E207170BD000090A40020CC230020C9
:1008B00090A7002010B59FED120A00210020114BD7
:1008C000A3F13002B2F91C2007E003EB8004D4ED61
:1008D000000A30EE800A491C401C9042F5DB0029DA
:1008E0000BDD00EE901AF8EEE00A80EE201ABDEE65
:1008F000C10A10EE100A00B210BD002010BD0000A9
:10090000000000002423002070B504460E46002C91
:1009100057D0204602F0F0FA642852D8294D2879A1
:10092000052805D269798C4200DC2C7A401C28719C
:10093000A879A04216DC6879844213DC95ED070A99
:10094000DFED210AB8EEC00A60EE200A00EE104A80
:10095000B8EEC00AF4EEC00AF1EE10FA02DD286A21
:10096000072816DBE879844218DD95ED070ADFEDEC
:10097000170AB8EEC00A60EE200A00EE104AB8EE80
:10098000C00AF4EEC00AF1EE10FA07D2286A052870
:1009900004DAEC69286A401C286207E0204600F06F
:1009A00019F8002C00DDEC610020286208496889F4
:1009B00041F8204001EB80010E65132801D2401C54
:1009C000688170BD542200203333333F6666A63FF2
:1009D000F053002070B505460A4CE078052807D38F
:1009E00001220521084802F09AFCE178491EE170D5
:1009F000E178481CE070044840F82150BDE87040A0
:100A0000FEF72EBF54220020EC520020DFED060A34
:100A100020EE200ADFED050A80EE201A9FED040A81
:100A200031EE400A7047000000404E4500608645A8
:100A30000020B2440FB4054B10B503A9044A029834
:100A400000F04CF810BC5DF814FB0000172C0200FD
:100A50008C210020002807DB00F01F0201219140BB
:100A6000024A430942F823107047000080E200E088
:100A700000280DDB00BF00BF00F01F0201219140E4
:100A80004209920002F1E022C2F8001100BF00BF4B
:100A900070470000002807DB00F01F020121914091
:100AA000024A430942F823107047000000E200E0C8
:100AB00002E008C8121F08C1002AFAD17047704727
:100AC000002001E001C1121F002AFBD1704700BFC6
:100AD000EFF31081084672B6704700002DE9FF4F12
:100AE0008BB09A460F460546002606E025280BD017
:100AF00052460D9990476D1C761C28780028F5D138
:100B00000FB03046BDE8F08F0024A04601226049B6
:100B100000E0044315F8013F203B02FA03F00842CD
:100B2000F7D128782E2817D115F8010F44F00404C6
:100B30002A280ED06FF02F022878A0F13001092961
:100B40000AD808EB880102EB410100EB01086D1C9B
:100B5000F2E757F8048B6D1C287869283ED006DC34
:100B60000028CDD063280BD0642804D136E0732848
:100B700010D075284BD052460D999047761C85E0D1
:100B800017F8040B8DF8000000208DF80100E946ED
:100B9000012003E057F8049B4FF0FF3061074FF04E
:100BA000000401D40AE0641C44450DDA8442FADBF7
:100BB00019F804100029F6D106E0641C8442FCDB1D
:100BC00019F804100029F8D1264404E019F8010BA3
:100BD00052460D999047641EF8D257E001CF4FF06E
:100BE0000A0B002802DA40422D2102E0210504D53B
:100BF0002B218DF82410012103E0E10705D02021ED
:100C0000F7E70DF1200908910CE00021F9E701CF89
:100C10004FF00A0BF9E75946FBF76CFE01F1300281
:100C200009F8012D0028F6D1ADEB090000F1200BE9
:100C3000600701D44FF00108D84502DDA8EB0B0096
:100C400000E000208046002406E009A85246005D2E
:100C50000D999047641C761C08988442F5DB04E0EB
:100C6000302052460D999047761CB8F10001A8F14A
:100C70000108F5DC05E019F8010B52460D99904783
:100C8000761CBBF10001ABF1010BF4DC6D1C34E709
:100C9000092801002DE9FC41044688461646002536
:100CA000378800203080606B68B1616B08783B4604
:100CB0003246414604F026FA054600BF15B12846E3
:100CC000BDE8FC8100BF206B58B13B46324641462F
:100CD000206B04F064FF054600BF0DB12846EFE726
:100CE00000BF94F82E0060B194F82E003B463246C7
:100CF000414602F0BDFA054600BF0DB12846DFE7C8
:100D000000BF94F82D0050B13A463146404600F0FD
:100D1000E0FF054600BF0DB12846D1E700BFA0782F
:100D200050B13A463146404600F008FB054600BF48
:100D30000DB12846C4E700BFE07860B1E17848B261
:100D40003B463246414601F0BFFE054600BF0DB1AD
:100D50002846B5E700BF606868B1616891F9000096
:100D60003B463246414605F04FF8054600BF0DB1FF
:100D70002846A5E700BF208900280EDD434606224D
:100D8000022104F10800CDE9006705F047FA0546A5
:100D900000BF0DB1284693E700BF208A00280EDD72
:100DA00043460722032104F11000CDE9006705F056
:100DB00035FA054600BF0DB1284681E700BF208BFC
:100DC00000280EDD43461522142104F11800CDE958
:100DD000006705F023FA054600BF0DB128466FE70E
:100DE00000BF206A58B13B4632464146206A01F0B6
:100DF000B0FB054600BF0DB1284661E700BF606A41
:100E000058B13B4632464146606A02F047FD05460E
:100E100000BF0DB1284653E700BF94F82C0000280E
:100E20000BDD3B4632464146204604F086F9054636
:100E300000BF0DB1284643E700BF207858B13B46BC
:100E400032464146204602F064FD054600BF0DB122
:100E5000284635E700BF284632E70146C87800F04B
:100E6000040008B9072070470020FCE710B50122F4
:100E70000221002001F040F9044600BF1CB1072CFC
:100E800001D0204610BD00BF07220221012001F041
:100E900033F9044600BF1CB1072C01D02046F1E70E
:100EA00000BF0A220021084601F026F9044600BFCF
:100EB0001CB1072C01D02046E4E700BF0020E1E789
:100EC00030B599B038210BA8FBF791FB02208DF8C3
:100ED0002C0006208DF82F00242102A8FBF787FBA9
:100EE00001208DF814004FF49650069000200790D2
:100EF000094B02AA014600900BA800F0B9FB04467A
:100F000000BF254625B100BF284600F053F800BFBA
:100F100000BF19B030BD0000F1470200F0B591B03C
:100F200004460D462420ADF800000294ADF80450AC
:100F3000382103A8FBF75BFB02208DF80C0006208C
:100F40008DF80F00CDF830D00023084A194603A8C9
:100F500000F0D0FC064600BF374627B100BF384638
:100F600000F028F800BF00BF11B0F0BDF14702004B
:100F700000BF00BF00BF00BF00BFBFF34F8F00BF67
:100F800000BF00BF0948006800F4E060084908435A
:100F9000001D0649086000BF00BF00BFBFF34F8FB0
:100FA00000BF00BF00BF00BF00BFFDE70CED00E0C9
:100FB0000000FA053EB50446002000900190029022
:100FC00002946A46002144F20100FFF7D1FF3EBDC2
:100FD00070B504460D46204601F05FFD28B1294654
:100FE000204601F049FD002070BD0520FCE70346C6
:100FF00009B90E20704712B1501E104008B10920E7
:10100000F8E71960501E988000209860D86000BFF3
:10101000F0E770B504460D46204601F03EFDA1887C
:10102000884205D82946204601F045FD002070BDC4
:101030000420FCE7F8B505460C462778A06800EBCD
:101040004000064951F820600548006800902A4693
:10105000394604F108002369B047F8BD305100203B
:101060008421002010B504460748007800EB800278
:101070000548001D00EB82012046FFF7DBFF04203E
:1010800004F056F910BD00006450002070B503460E
:10109000002000BF07E00C5C074D2D780544074E8B
:1010A0007455441CE0B29042F5DB034C24781444A0
:1010B000014D2C7070BD0000CB200020882800203E
:1010C000F8B50025144A0021144802F0D3FE054665
:1010D00000BF2E4626B100BF3046FFF76BFF00BFB2
:1010E00000BF01210D4B1A68D2F8100500BF02465F
:1010F0004FF47A5311FB03F323FA02F400BF00BF4D
:1011000001200346224600210090044802F090FE90
:10111000024802F07BFEF8BDD5E2010090630200B8
:101120002DE9F84304460D461746264600BF1148F0
:10113000006810B90820BDE8F88300BF0CB908208A
:10114000F9E7052D01D20720F5E7706908B90820F5
:10115000F1E7707C012801D1284600E0002080469C
:1011600005F016F8814643462A463146009704F0BA
:1011700077FCE0E79821002070B50446254600BFC3
:101180000948006808B9082070BD00BF0CB1686943
:1011900008B90820F8E70020287404F0F9FF064693
:1011A000294604F08BFCEFE79821002070B5044637
:1011B0000A4801F06DFC09498988884208D101215B
:1011C000074802F021FF05460DB1052070BD00BFA4
:1011D00021460248FFF7FCFEF8E700001850002007
:1011E0005D2100202DE9F04188B004460D461746E8
:1011F0009846294807601DB9072008B0BDE8F0816E
:10120000A88882B225482968FFF7F1FE064600BF8C
:101210000EB13046F1E700BFA88982B22048A96824
:10122000FFF7E5FE064600BF0EB13046E5E700BF1A
:1012300020221C496846FBF7B3F9A0680690207984
:1012400008B1012000E000208DF814008DF81C800A
:10125000607908B10E2000E000208DF81500E078DC
:101260000290A078039020780190607800900E4959
:10127000684602F057FE064600BF0EB13046BCE796
:1012800000BF9DF81D0008B902F016FF01210748B4
:1012900002F0BAFEB1E700006021002018500020E3
:1012A00028500020E4630200415E02005D2100201E
:1012B00070B5044621460A48FFF7ABFE054665B9FE
:1012C00003F060F848B907490548FFF781FE20B9E7
:1012D0000121044802F0B4FF0546284670BD000015
:1012E000285000205C21002010B50446204603F061
:1012F000D5FE10BD70B5044625460E488068B0B1D5
:10130000ADB9FFF7E4FB06460A4800680A490860E1
:10131000084840684FF0E021C1F804010020054969
:1013200088601EB900BF62B600BF00BF00BF00BF2B
:1013300070BD0000A051002000E100E0F8B50546B6
:101340000C4617462088001DB84201D90C20F8BD74
:10135000684679DF064600BF0EB13046F7E700BFAA
:101360000320218868542088401C2080192021886F
:1013700068542088401C208020884119BDF8000056
:1013800004F0FCFE2188084420800020DFE70000F4
:1013900010B50446206803F00FF9206803F0B9F88F
:1013A0000021606803F09CF82548007F18B3A0690D
:1013B0002449086000BF607D217D40EA0102224B84
:1013C000C3F86C2500BF1846D4E9001203F0FEF9FB
:1013D000207D012832D10021A06803F081F8E06867
:1013E00003F0EAF8E06803F094F81748D4E9022122
:1013F00003F0D8F922E0A0691249086000BF607DBF
:10140000217D40EA0102104BC3F86C2500BF18464D
:10141000D4E9001203F0B1F9207D01280ED100219A
:10142000A06803F05DF8E06803F0C6F8E06803F038
:1014300070F80548D4E9022103F088F910BD0000D6
:10144000984F0020242500400020004070B5234C18
:1014500084ED0A0A02F080F884ED0B0A01F0ACFD7D
:1014600084ED0B0A03F06EFF84ED0B0A606A411CE9
:1014700061621B4901EB800080ED000A01F032FC43
:1014800084ED0B0A606A4FF47A75A84222D315489E
:10149000D0EDF30A30EEC00A84ED0B0A2069B0F5F6
:1014A000F97F07DC0146401C20610F4800EB8100FA
:1014B00080ED000A0D480078012803D1FEF740F9BD
:1014C000FDF7FAFC01222946054801F006FF606A93
:1014D000401E6062BDE87040FEF77CBD982200208F
:1014E00038660020386A0020045E0020CE220020EA
:1014F00010B5134CE06800281DD11420E06084ED85
:10150000060AFFF783FA84ED070A00F01FF884ED5E
:10151000080A6069192806DA411C6161094901EB72
:10152000800080ED000A08480078012803D1FEF70A
:1015300091F8FEF75DFFE068401EE06010BD00001E
:1015400098220020D4650020CE220020F0B5204D46
:10155000A8690C2801DB0020A8611E4EAC6906EBCF
:10156000840080ED000A9FED1C0A0021B0EE402AA5
:10157000F0EE420A0022002001EB410306EB0313C8
:1015800003EB800797ED001A71EE200A521C401CF5
:101590000C28F5DB03290FDA01EE102A481C00EBBA
:1015A0004000B8EEC11A06EB001000EB8400C0EE5C
:1015B000811AC0ED001A05E000EE102AB8EEC01A3C
:1015C00080EE810A491C0429D2DB641CAC61F0BDA9
:1015D0002C23002058900020000000002DE9F0414D
:1015E00092B080460D461F2011901090B8F1000F68
:1015F00017D04046FFF731FC044600BF1CB120461F
:1016000012B0BDE8F08100BF11AA08A94046FFF75B
:1016100041FB044600BF0CB12046F1E700BF08AE15
:1016200002E0002600201190ADB1284603F03AFFF9
:10163000044600BF0CB12046E2E700BF10AA69468D
:101640002846FFF727FB044600BF0CB12046D7E72A
:1016500000BF6F4602E0002700201090BDF8400058
:10166000C3B2BDF84400C1B23A46304672DFC7E7A4
:101670002DE9F04704460F4615461E46DDF820804A
:1016800000BF14B90E20BDE8F08700BF00BF0DB940
:101690000E20F8E700BF0020464908704648066063
:1016A0004648C0F80080242229464548FAF778FFCA
:1016B00000F018F9434844490860444888603821DC
:1016C0004348FAF794FF207841490870A078887061
:1016D000E078C870607848700846D4E90412C0E920
:1016E0000412D4E90212C0E90212D4E90612C0E9D8
:1016F0000612606AD8B13748354948623649816078
:10170000606A00883249496A0880606A8088304986
:10171000496A8880002005E0616A8968095C2E4A70
:101720001154401C2A49496A89888142F4D8A06A28
:1017300020B32A492A4881602549886227492448DC
:10174000806A8160A06A80882149896A8880A06A4D
:1017500000881F49896A0880002005E0A16A89681D
:10176000095C1E4A1154401C1949896A89888142C2
:10177000F4D894F82C00164981F82C00206A58B14E
:10178000184813490862206A4088096A4880206A1C
:1017900000880F49096A0880606820B112480C4926
:1017A00048606068486039460948FFF717FF81467E
:1017B000484668E7E4210020DC210020E0210020E9
:1017C000E451002018520020085200203852002016
:1017D000AC5100205852002064520020905200204A
:1017E00084520020E8210020EC21002070B504463E
:1017F0002088102804D0112809D01B2863D11BE0B1
:10180000A07D012802D1A088304908805CE000203A
:101810002F490870A0882D49098888420BD10120E2
:1018200000F0C4F8054635B12A48006818B12846CA
:1018300028490968884747E0207A002842D126488D
:101840000078012806D0022811D003281CD00428D3
:1018500036D129E0022000F0A9F8054635B11D482F
:10186000006818B128461B490968884729E0032009
:1018700000F09CF8054635B11648006818B12846B6
:101880001449096888471CE00320144908700420A3
:1018900000F08CF8054635B10E48006818B12846AE
:1018A0000C49096888470CE000200C4908700C4876
:1018B000006820B10846007809490968884700E0B7
:1018C00000BF00BF00E000BF00BF70BDEE210020E0
:1018D000E5210020E0210020E4210020D821002083
:1018E000DC21002002480021016081808171704765
:1018F000D12100202DE9F04104460F4615461E4631
:1019000000BF14B90E20BDE8F08100BF00201E49C1
:1019100008701E4805601E4806601E481E49086083
:101920001E48886038211E48FAF761FE20781C495D
:101930000870A0788870E078C87060784870606A35
:10194000D0B11848486218498160606A008814491B
:10195000496A0880606A80881149496A8880002045
:1019600005E0616A8968095C0F4A1154401C0C4902
:10197000496A89888142F4D839460948FFF72EFE22
:1019800080464046BFE70000E4210020DC21002023
:10199000E021002018520020085200203852002078
:1019A000AC510020585200206452002030B587B05E
:1019B00005469548057001F0A2F828B10120934929
:1019C0000870002007B030BDFFF78CFF90484078CA
:1019D00018B18D48007801280DD08D48807818B155
:1019E00089480078012806D08948807888B18648DF
:1019F000007802280DD18748006838B10120864957
:101A00000870082083490968884702E0002082495D
:101A100008707D480078012809D17D48407818B1C8
:101A20007E4802F0DDFF10B9022077490870764841
:101A30000078022809D17648807818B1774802F0FA
:101A4000CFFF10B90320704908707148007B30B98E
:101A50006D480078032802D104206B4908706C4857
:101A6000007E40B968480078042804D10020664907
:101A700008706B49087067480068A8B16248007830
:101A8000032803D06048007804280DD1604800780E
:101A900050B16448007838B90120634908700720C4
:101AA0005C490968884702E000205F4908701821F6
:101AB00001A8FAF79CFD00208DF8040002908DF833
:101AC0000C00049050480078012806D0022813D05A
:101AD000032825D0042876D150E05048401E0290BB
:101AE00001208DF804000020ADF81600ADF81400B8
:101AF00001204B49087071E04848401E02900120C7
:101B00008DF804004248008980B2ADF816004048C4
:101B1000808880B2ADF814000220414908705DE071
:101B20003B48808A80B2ADF816003948008A80B2FE
:101B3000ADF814003D4804F007FCD8B134480078F3
:101B4000C0B138480078A8B902208DF80C00374899
:101B5000049004203649C87000213548FFF73EFD47
:101B6000044600BF0CB120462CE700BF05202C49DD
:101B7000087002E003202A4908702FE02448808B77
:101B800080B2ADF814002248008C80B2ADF8160087
:101B9000264804F0D9FBE0B11D480078C8B12148BF
:101BA0000078B0B902208DF80C0020480490042081
:101BB0001F49C87000211E48FFF710FD044600BFF2
:101BC00014B12046FEE608E000BF06201449087064
:101BD00002E004201249087000E000BF00BF0A487C
:101BE000007838B101A873DF044600BF0CB120466D
:101BF000E8E600BF0748006820B1094800780549B9
:101C0000096888470020DDE6E4210020D02100207B
:101C1000E4510020DC210020E7210020D221002017
:101C2000D8210020E5210020E621002008520020D4
:101C3000AC51002070B505461C2229461048FAF721
:101C4000AFFC00200F490870286850B10E48296881
:101C50000A680260496841607ADF04463CB1204668
:101C600070BD09487BDF04460CB12046F8E74FF60B
:101C7000FF700649088000200549087000BFEFE7A3
:101C8000B05200204E2200203A22002044220020A0
:101C90004222002010B504462088102806D01128C2
:101CA00008D012280ED0502810D107E0204602F0AC
:101CB00003FE0CE0204602F01FFE08E0204602F082
:101CC00063FE04E0204602F0E7FD00E000BF00BF35
:101CD00010BD2DE9FC4105460C4617462088093009
:101CE000B84202D90C20BDE8FC81684671DF064687
:101CF00000BF0EB13046F6E700BF082021886854C7
:101D00002088401C20801B20218868542088401C8B
:101D1000208020882844DDF801100160BDF80510FE
:101D200081802088801D20809DF8000018B9002047
:101D30002188685402E00120218868542088401CD2
:101D400020800020CFE700007FB5044600BF0120BF
:101D50008DF80E0041F60A00ADF80C0000BF564A9F
:101D600003A90120A0DF054615B1284604B070BDC7
:101D7000208800280DDD51480090228804F13C03A2
:101D800042F62920616800F0CDF905460DB12846DC
:101D9000ECE7208900280DDD49480090228904F1F4
:101DA0003C0342F62420E16800F0BCF905460DB181
